{
  "contractName": "CatContract",
  "abi": [
    {
      "anonymous": false,
      "inputs": [
        {
          "indexed": true,
          "internalType": "address",
          "name": "owner",
          "type": "address"
        },
        {
          "indexed": true,
          "internalType": "address",
          "name": "approved",
          "type": "address"
        },
        {
          "indexed": true,
          "internalType": "uint256",
          "name": "tokenId",
          "type": "uint256"
        }
      ],
      "name": "Approval",
      "type": "event"
    },
    {
      "anonymous": false,
      "inputs": [
        {
          "indexed": true,
          "internalType": "address",
          "name": "from",
          "type": "address"
        },
        {
          "indexed": true,
          "internalType": "address",
          "name": "to",
          "type": "address"
        },
        {
          "indexed": true,
          "internalType": "uint256",
          "name": "tokenId",
          "type": "uint256"
        }
      ],
      "name": "Transfer",
      "type": "event"
    },
    {
      "constant": true,
      "inputs": [],
      "name": "_name",
      "outputs": [
        {
          "internalType": "string",
          "name": "",
          "type": "string"
        }
      ],
      "payable": false,
      "stateMutability": "view",
      "type": "function"
    },
    {
      "constant": true,
      "inputs": [],
      "name": "_symbol",
      "outputs": [
        {
          "internalType": "string",
          "name": "",
          "type": "string"
        }
      ],
      "payable": false,
      "stateMutability": "view",
      "type": "function"
    },
    {
      "constant": true,
      "inputs": [
        {
          "internalType": "uint256",
          "name": "",
          "type": "uint256"
        }
      ],
      "name": "ownerID",
      "outputs": [
        {
          "internalType": "address",
          "name": "",
          "type": "address"
        }
      ],
      "payable": false,
      "stateMutability": "view",
      "type": "function"
    },
    {
      "constant": true,
      "inputs": [
        {
          "internalType": "address",
          "name": "owner",
          "type": "address"
        }
      ],
      "name": "balanceOf",
      "outputs": [
        {
          "internalType": "uint256",
          "name": "balance",
          "type": "uint256"
        }
      ],
      "payable": false,
      "stateMutability": "view",
      "type": "function"
    },
    {
      "constant": true,
      "inputs": [],
      "name": "totalSupply",
      "outputs": [
        {
          "internalType": "uint256",
          "name": "total",
          "type": "uint256"
        }
      ],
      "payable": false,
      "stateMutability": "view",
      "type": "function"
    },
    {
      "constant": true,
      "inputs": [],
      "name": "name",
      "outputs": [
        {
          "internalType": "string",
          "name": "tokenName",
          "type": "string"
        }
      ],
      "payable": false,
      "stateMutability": "view",
      "type": "function"
    },
    {
      "constant": true,
      "inputs": [],
      "name": "symbol",
      "outputs": [
        {
          "internalType": "string",
          "name": "tokenSymbol",
          "type": "string"
        }
      ],
      "payable": false,
      "stateMutability": "view",
      "type": "function"
    },
    {
      "constant": true,
      "inputs": [
        {
          "internalType": "uint256",
          "name": "tokenId",
          "type": "uint256"
        }
      ],
      "name": "ownerOf",
      "outputs": [
        {
          "internalType": "address",
          "name": "owner",
          "type": "address"
        }
      ],
      "payable": false,
      "stateMutability": "view",
      "type": "function"
    },
    {
      "constant": false,
      "inputs": [
        {
          "internalType": "address",
          "name": "to",
          "type": "address"
        },
        {
          "internalType": "uint256",
          "name": "tokenId",
          "type": "uint256"
        }
      ],
      "name": "transfer",
      "outputs": [],
      "payable": false,
      "stateMutability": "nonpayable",
      "type": "function"
    }
  ],
  "bytecode": "0x608060405234801561001057600080fd5b5061099d806100206000396000f3fe608060405234801561001057600080fd5b50600436106100935760003560e01c806395d89b411161006657806395d89b41146101ff578063a9059cbb14610282578063b09f1266146102d0578063d28d885214610353578063de2b8a7e146103d657610093565b806306fdde031461009857806318160ddd1461011b5780636352211e1461013957806370a08231146101a7575b600080fd5b6100a0610444565b6040518080602001828103825283818151815260200191508051906020019080838360005b838110156100e05780820151818401526020810190506100c5565b50505050905090810190601f16801561010d5780820380516001836020036101000a031916815260200191505b509250505060405180910390f35b610123610481565b6040518082815260200191505060405180910390f35b6101656004803603602081101561014f57600080fd5b810190808035906020019092919050505061048d565b604051808273ffffffffffffffffffffffffffffffffffffffff1673ffffffffffffffffffffffffffffffffffffffff16815260200191505060405180910390f35b6101e9600480360360208110156101bd57600080fd5b81019080803573ffffffffffffffffffffffffffffffffffffffff1690602001909291905050506104ca565b6040518082815260200191505060405180910390f35b610207610513565b6040518080602001828103825283818151815260200191508051906020019080838360005b8381101561024757808201518184015260208101905061022c565b50505050905090810190601f1680156102745780820380516001836020036101000a031916815260200191505b509250505060405180910390f35b6102ce6004803603604081101561029857600080fd5b81019080803573ffffffffffffffffffffffffffffffffffffffff16906020019092919080359060200190929190505050610550565b005b6102d861089c565b6040518080602001828103825283818151815260200191508051906020019080838360005b838110156103185780820151818401526020810190506102fd565b50505050905090810190601f1680156103455780820380516001836020036101000a031916815260200191505b509250505060405180910390f35b61035b6108d5565b6040518080602001828103825283818151815260200191508051906020019080838360005b8381101561039b578082015181840152602081019050610380565b50505050905090810190601f1680156103c85780820380516001836020036101000a031916815260200191505b509250505060405180910390f35b610402600480360360208110156103ec57600080fd5b810190808035906020019092919050505061090e565b604051808273ffffffffffffffffffffffffffffffffffffffff1673ffffffffffffffffffffffffffffffffffffffff16815260200191505060405180910390f35b60606040518060400160405280600781526020017f436174436f696e00000000000000000000000000000000000000000000000000815250905090565b60008080549050905090565b60006002600083815260200190815260200160002060009054906101000a900473ffffffffffffffffffffffffffffffffffffffff169050919050565b6000600160008373ffffffffffffffffffffffffffffffffffffffff1673ffffffffffffffffffffffffffffffffffffffff168152602001908152602001600020549050919050565b60606040518060400160405280600281526020017f4343000000000000000000000000000000000000000000000000000000000000815250905090565b600073ffffffffffffffffffffffffffffffffffffffff168273ffffffffffffffffffffffffffffffffffffffff1614156105f3576040517f08c379a000000000000000000000000000000000000000000000000000000000815260040180806020018281038252601b8152602001807f43616e6e6f742053656e6420746f205a65726f2041646472657373000000000081525060200191505060405180910390fd5b3073ffffffffffffffffffffffffffffffffffffffff168273ffffffffffffffffffffffffffffffffffffffff161415610678576040517f08c379a00000000000000000000000000000000000000000000000000000000081526004018080602001828103825260278152602001806109426027913960400191505060405180910390fd5b3373ffffffffffffffffffffffffffffffffffffffff166002600083815260200190815260200160002060009054906101000a900473ffffffffffffffffffffffffffffffffffffffff1673ffffffffffffffffffffffffffffffffffffffff161461074c576040517f08c379a00000000000000000000000000000000000000000000000000000000081526004018080602001828103825260168152602001807f596f75204d75737420426520546865204f776e65722e0000000000000000000081525060200191505060405180910390fd5b600160003373ffffffffffffffffffffffffffffffffffffffff1673ffffffffffffffffffffffffffffffffffffffff1681526020019081526020016000206000815480929190600190039190505550816002600083815260200190815260200160002060006101000a81548173ffffffffffffffffffffffffffffffffffffffff021916908373ffffffffffffffffffffffffffffffffffffffff160217905550600160008373ffffffffffffffffffffffffffffffffffffffff1673ffffffffffffffffffffffffffffffffffffffff16815260200190815260200160002060008154809291906001019190505550808273ffffffffffffffffffffffffffffffffffffffff163373ffffffffffffffffffffffffffffffffffffffff167fddf252ad1be2c89b69c2b068fc378daa952ba7f163c4a11628f55a4df523b3ef60405160405180910390a45050565b6040518060400160405280600281526020017f434300000000000000000000000000000000000000000000000000000000000081525081565b6040518060400160405280600781526020017f436174436f696e0000000000000000000000000000000000000000000000000081525081565b60026020528060005260406000206000915054906101000a900473ffffffffffffffffffffffffffffffffffffffff168156fe596f752043616e6e6f742053656e6420746f2074686520436f6e74726163742041646472657373a265627a7a723158203d5630007e9f644a27a520fff45304bf2a9eb6278f06dd6a45dd5b648e45f24764736f6c63430005100032",
  "source": "pragma solidity ^0.5.12;\n\nimport \"./IERC721.sol\";\n\ncontract CatContract is IERC721 {\n\n  string public constant _name = \"CatCoin\";\n  string public constant _symbol = \"CC\";\n\n  struct Cat{\n    uint256 genes;\n    uint64 birthTime;\n    uint32 momID;\n    uint32 dadID;\n    uint16 generation;\n  }\n\n  Cat[] cats;\n\n  mapping (address => uint256) ownership;\n  mapping (uint256 => address) public ownerID;\n\n  function balanceOf(address owner) external view returns (uint256 balance){\n    return ownership[owner];\n  }\n\n  function totalSupply() external view returns (uint256 total){\n    return cats.length;\n  }\n\n  function name() external view returns (string memory tokenName){\n    return _name;\n  }\n\n  function symbol() external view returns (string memory tokenSymbol){\n    return _symbol;\n  }\n\n  function ownerOf(uint256 tokenId) external view returns (address owner){\n    return ownerID[tokenId];\n  }\n\n  function transfer(address to, uint256 tokenId) external{\n    require(to != address(0),\"Cannot Send to Zero Address\");\n    require(to != address(this), \"You Cannot Send to the Contract Address\");\n    require(ownerID[tokenId] == msg.sender, \"You Must Be The Owner.\");\n\n    ownership[msg.sender] --;\n    ownerID[tokenId] = to;\n    ownership[to] ++;\n\n    emit Transfer(msg.sender, to, tokenId);\n  }\n}\n",
  "sourcePath": "/Users/tylersiravo/Documents/GitHub/Solidity-Practice/academy-kitties-template/contracts/CatContract.sol",
  "compiler": {
    "name": "solc",
    "version": "0.5.16+commit.9c3226ce.Emscripten.clang"
  },
  "schemaVersion": "3.2.0",
  "updatedAt": "2020-10-20T16:11:23.429Z",
  "networkType": "ethereum",
  "devdoc": {
    "methods": {}
  },
  "userdoc": {
    "methods": {}
  }
}