{
  "contractName": "CatContract",
  "abi": [
    {
      "anonymous": false,
      "inputs": [
        {
          "indexed": true,
          "internalType": "address",
          "name": "owner",
          "type": "address"
        },
        {
          "indexed": true,
          "internalType": "address",
          "name": "approved",
          "type": "address"
        },
        {
          "indexed": true,
          "internalType": "uint256",
          "name": "tokenId",
          "type": "uint256"
        }
      ],
      "name": "Approval",
      "type": "event"
    },
    {
      "anonymous": false,
      "inputs": [
        {
          "indexed": false,
          "internalType": "address",
          "name": "owner",
          "type": "address"
        },
        {
          "indexed": false,
          "internalType": "uint256",
          "name": "tokenID",
          "type": "uint256"
        },
        {
          "indexed": false,
          "internalType": "uint256",
          "name": "momID",
          "type": "uint256"
        },
        {
          "indexed": false,
          "internalType": "uint256",
          "name": "dadID",
          "type": "uint256"
        },
        {
          "indexed": false,
          "internalType": "uint256",
          "name": "genes",
          "type": "uint256"
        }
      ],
      "name": "Birth",
      "type": "event"
    },
    {
      "anonymous": false,
      "inputs": [
        {
          "indexed": true,
          "internalType": "address",
          "name": "from",
          "type": "address"
        },
        {
          "indexed": true,
          "internalType": "address",
          "name": "to",
          "type": "address"
        },
        {
          "indexed": true,
          "internalType": "uint256",
          "name": "tokenId",
          "type": "uint256"
        }
      ],
      "name": "Transfer",
      "type": "event"
    },
    {
      "constant": true,
      "inputs": [],
      "name": "gen0Counter",
      "outputs": [
        {
          "internalType": "uint256",
          "name": "",
          "type": "uint256"
        }
      ],
      "payable": false,
      "stateMutability": "view",
      "type": "function"
    },
    {
      "constant": true,
      "inputs": [],
      "name": "gen0CreationLimit",
      "outputs": [
        {
          "internalType": "uint256",
          "name": "",
          "type": "uint256"
        }
      ],
      "payable": false,
      "stateMutability": "view",
      "type": "function"
    },
    {
      "constant": false,
      "inputs": [
        {
          "internalType": "uint256",
          "name": "_genes",
          "type": "uint256"
        }
      ],
      "name": "createGen0Cat",
      "outputs": [
        {
          "internalType": "uint256",
          "name": "",
          "type": "uint256"
        }
      ],
      "payable": false,
      "stateMutability": "nonpayable",
      "type": "function"
    },
    {
      "constant": true,
      "inputs": [
        {
          "internalType": "uint256",
          "name": "_tokenID",
          "type": "uint256"
        }
      ],
      "name": "getKitty",
      "outputs": [
        {
          "internalType": "address",
          "name": "owner",
          "type": "address"
        },
        {
          "internalType": "uint256",
          "name": "genes",
          "type": "uint256"
        },
        {
          "internalType": "uint256",
          "name": "birthTime",
          "type": "uint256"
        },
        {
          "internalType": "uint256",
          "name": "momID",
          "type": "uint256"
        },
        {
          "internalType": "uint256",
          "name": "dadID",
          "type": "uint256"
        },
        {
          "internalType": "uint256",
          "name": "generation",
          "type": "uint256"
        }
      ],
      "payable": false,
      "stateMutability": "view",
      "type": "function"
    },
    {
      "constant": true,
      "inputs": [
        {
          "internalType": "address",
          "name": "owner",
          "type": "address"
        }
      ],
      "name": "balanceOf",
      "outputs": [
        {
          "internalType": "uint256",
          "name": "balance",
          "type": "uint256"
        }
      ],
      "payable": false,
      "stateMutability": "view",
      "type": "function"
    },
    {
      "constant": true,
      "inputs": [],
      "name": "totalSupply",
      "outputs": [
        {
          "internalType": "uint256",
          "name": "total",
          "type": "uint256"
        }
      ],
      "payable": false,
      "stateMutability": "view",
      "type": "function"
    },
    {
      "constant": true,
      "inputs": [],
      "name": "name",
      "outputs": [
        {
          "internalType": "string",
          "name": "tokenName",
          "type": "string"
        }
      ],
      "payable": false,
      "stateMutability": "view",
      "type": "function"
    },
    {
      "constant": true,
      "inputs": [],
      "name": "symbol",
      "outputs": [
        {
          "internalType": "string",
          "name": "tokenSymbol",
          "type": "string"
        }
      ],
      "payable": false,
      "stateMutability": "view",
      "type": "function"
    },
    {
      "constant": true,
      "inputs": [
        {
          "internalType": "uint256",
          "name": "_tokenID",
          "type": "uint256"
        }
      ],
      "name": "ownerOf",
      "outputs": [
        {
          "internalType": "address",
          "name": "owner",
          "type": "address"
        }
      ],
      "payable": false,
      "stateMutability": "view",
      "type": "function"
    },
    {
      "constant": false,
      "inputs": [
        {
          "internalType": "address",
          "name": "_to",
          "type": "address"
        },
        {
          "internalType": "uint256",
          "name": "_tokenID",
          "type": "uint256"
        }
      ],
      "name": "transfer",
      "outputs": [],
      "payable": false,
      "stateMutability": "nonpayable",
      "type": "function"
    },
    {
      "constant": true,
      "inputs": [
        {
          "internalType": "address",
          "name": "owner",
          "type": "address"
        }
      ],
      "name": "getMyCats",
      "outputs": [
        {
          "internalType": "uint256[]",
          "name": "",
          "type": "uint256[]"
        }
      ],
      "payable": false,
      "stateMutability": "view",
      "type": "function"
    }
  ],
  "bytecode": "0x6080604052336000806101000a81548173ffffffffffffffffffffffffffffffffffffffff021916908373ffffffffffffffffffffffffffffffffffffffff160217905550610fd1806100536000396000f3fe608060405234801561001057600080fd5b50600436106100a95760003560e01c806370a082311161007157806370a082311461027457806377e220a0146102cc57806395d89b411461030e578063a9059cbb14610391578063e98b7f4d146103df578063ef5e94aa14610470576100a9565b806306fdde03146100ae57806318160ddd14610131578063404d0e3e1461014f5780634765077c1461016d5780636352211e14610206575b600080fd5b6100b661048e565b6040518080602001828103825283818151815260200191508051906020019080838360005b838110156100f65780820151818401526020810190506100db565b50505050905090810190601f1680156101235780820380516001836020036101000a031916815260200191505b509250505060405180910390f35b6101396104cb565b6040518082815260200191505060405180910390f35b6101576104d8565b6040518082815260200191505060405180910390f35b6101af6004803603602081101561018357600080fd5b81019080803573ffffffffffffffffffffffffffffffffffffffff1690602001909291905050506104dd565b6040518080602001828103825283818151815260200191508051906020019060200280838360005b838110156101f25780820151818401526020810190506101d7565b505050509050019250505060405180910390f35b6102326004803603602081101561021c57600080fd5b810190808035906020019092919050505061064b565b604051808273ffffffffffffffffffffffffffffffffffffffff1673ffffffffffffffffffffffffffffffffffffffff16815260200191505060405180910390f35b6102b66004803603602081101561028a57600080fd5b81019080803573ffffffffffffffffffffffffffffffffffffffff169060200190929190505050610702565b6040518082815260200191505060405180910390f35b6102f8600480360360208110156102e257600080fd5b810190808035906020019092919050505061074b565b6040518082815260200191505060405180910390f35b6103166107dd565b6040518080602001828103825283818151815260200191508051906020019080838360005b8381101561035657808201518184015260208101905061033b565b50505050905090810190601f1680156103835780820380516001836020036101000a031916815260200191505b509250505060405180910390f35b6103dd600480360360408110156103a757600080fd5b81019080803573ffffffffffffffffffffffffffffffffffffffff1690602001909291908035906020019092919050505061081a565b005b61040b600480360360208110156103f557600080fd5b81019080803590602001909291905050506109cd565b604051808773ffffffffffffffffffffffffffffffffffffffff1673ffffffffffffffffffffffffffffffffffffffff168152602001868152602001858152602001848152602001838152602001828152602001965050505050505060405180910390f35b610478610b3a565b6040518082815260200191505060405180910390f35b60606040518060400160405280600781526020017f436174436f696e00000000000000000000000000000000000000000000000000815250905090565b6000600180549050905090565b600a81565b606080600360008473ffffffffffffffffffffffffffffffffffffffff1673ffffffffffffffffffffffffffffffffffffffff1681526020019081526020016000205460405190808252806020026020018201604052801561054e5781602001602082028038833980820191505090505b50905060008090505b600180549050811015610641578373ffffffffffffffffffffffffffffffffffffffff166002600083815260200190815260200160002060009054906101000a900473ffffffffffffffffffffffffffffffffffffffff1673ffffffffffffffffffffffffffffffffffffffff161461061b576040517f08c379a000000000000000000000000000000000000000000000000000000000815260040180806020018281038252602a815260200180610f73602a913960400191505060405180910390fd5b8082828151811061062857fe5b6020026020010181815250508080600101915050610557565b5080915050919050565b600060018054905082106106c7576040517f08c379a000000000000000000000000000000000000000000000000000000000815260040180806020018281038252601c8152602001807f546861742063617420646f65736e27742065786973742e2e2e7965740000000081525060200191505060405180910390fd5b6002600083815260200190815260200160002060009054906101000a900473ffffffffffffffffffffffffffffffffffffffff169050919050565b6000600360008373ffffffffffffffffffffffffffffffffffffffff1673ffffffffffffffffffffffffffffffffffffffff168152602001908152602001600020549050919050565b60008060009054906101000a900473ffffffffffffffffffffffffffffffffffffffff1673ffffffffffffffffffffffffffffffffffffffff163373ffffffffffffffffffffffffffffffffffffffff16146107a657600080fd5b600a600454106107b557600080fd5b6004600081548092919060010191905055506107d660008060008533610b40565b9050919050565b60606040518060400160405280600281526020017f4343000000000000000000000000000000000000000000000000000000000000815250905090565b600073ffffffffffffffffffffffffffffffffffffffff168273ffffffffffffffffffffffffffffffffffffffff1614156108bd576040517f08c379a000000000000000000000000000000000000000000000000000000000815260040180806020018281038252601c8152602001807f43616e6e6f742053656e6420746f205a65726f20416464726573732e0000000081525060200191505060405180910390fd5b3073ffffffffffffffffffffffffffffffffffffffff168273ffffffffffffffffffffffffffffffffffffffff161415610942576040517f08c379a0000000000000000000000000000000000000000000000000000000008152600401808060200182810382526028815260200180610f4b6028913960400191505060405180910390fd5b61094c3382610d0f565b6109be576040517f08c379a00000000000000000000000000000000000000000000000000000000081526004018080602001828103825260168152602001807f596f75204d75737420426520546865204f776e65722e0000000000000000000081525060200191505060405180910390fd5b6109c9338383610d7b565b5050565b6000806000806000806001805490508710610a50576040517f08c379a000000000000000000000000000000000000000000000000000000000815260040180806020018281038252601c8152602001807f546861742063617420646f65736e27742065786973742e2e2e7965740000000081525060200191505060405180910390fd5b600060018881548110610a5f57fe5b906000526020600020906002020190506002600089815260200190815260200160002060009054906101000a900473ffffffffffffffffffffffffffffffffffffffff1681600001548260010160009054906101000a900467ffffffffffffffff168360010160089054906101000a900463ffffffff1684600101600c9054906101000a900463ffffffff168560010160109054906101000a900461ffff168367ffffffffffffffff1693508263ffffffff1692508163ffffffff1691508061ffff1690509650965096509650965096505091939550919395565b60045481565b6000610b4a610f01565b6040518060a001604052808581526020014267ffffffffffffffff1681526020018863ffffffff1681526020018763ffffffff1681526020018661ffff16815250905060006001805490509050600182908060018154018082558091505090600182039060005260206000209060020201600090919290919091506000820151816000015560208201518160010160006101000a81548167ffffffffffffffff021916908367ffffffffffffffff16021790555060408201518160010160086101000a81548163ffffffff021916908363ffffffff160217905550606082015181600101600c6101000a81548163ffffffff021916908363ffffffff16021790555060808201518160010160106101000a81548161ffff021916908361ffff1602179055505050507f0a5311bd2a6608f08a180df2ee7c5946819a649b204b554bb8e39825b2c50ad584828a8a89604051808673ffffffffffffffffffffffffffffffffffffffff1673ffffffffffffffffffffffffffffffffffffffff1681526020018581526020018481526020018381526020018281526020019550505050505060405180910390a1610d0160008583610d7b565b809250505095945050505050565b60008273ffffffffffffffffffffffffffffffffffffffff166002600084815260200190815260200160002060009054906101000a900473ffffffffffffffffffffffffffffffffffffffff1673ffffffffffffffffffffffffffffffffffffffff1614905092915050565b600360008373ffffffffffffffffffffffffffffffffffffffff1673ffffffffffffffffffffffffffffffffffffffff16815260200190815260200160002060008154809291906001019190505550816002600083815260200190815260200160002060006101000a81548173ffffffffffffffffffffffffffffffffffffffff021916908373ffffffffffffffffffffffffffffffffffffffff160217905550600073ffffffffffffffffffffffffffffffffffffffff168373ffffffffffffffffffffffffffffffffffffffff1614610ea157600360008473ffffffffffffffffffffffffffffffffffffffff1673ffffffffffffffffffffffffffffffffffffffff16815260200190815260200160002060008154809291906001900391905055505b808273ffffffffffffffffffffffffffffffffffffffff168473ffffffffffffffffffffffffffffffffffffffff167fddf252ad1be2c89b69c2b068fc378daa952ba7f163c4a11628f55a4df523b3ef60405160405180910390a4505050565b6040518060a0016040528060008152602001600067ffffffffffffffff168152602001600063ffffffff168152602001600063ffffffff168152602001600061ffff168152509056fe596f752043616e6e6f742053656e6420746f2074686520436f6e747261637420416464726573732e4f776e6572206f6620746f6b656e204944206d757374206d61746368206f776e65722061646472657373a265627a7a72315820eae43981a53738b3d081da31195822cb77c393d6e5377b7d259128186656c73664736f6c634300050c0032",
  "source": "pragma solidity ^0.5.12;\n\nimport \"./Ownable.sol\";\nimport \"./IERC721.sol\";\n\n\ncontract CatContract is  IERC721, Ownable {\n\n  uint256 public constant gen0CreationLimit = 10;\n  string private constant _name = \"CatCoin\";\n  string private constant _symbol = \"CC\";\n\n  event Birth(address owner, uint256 tokenID, uint256 momID, uint256 dadID, uint256 genes);\n\n  struct Cat{\n    uint256 genes;\n    uint64 birthTime;\n    uint32 momID;\n    uint32 dadID;\n    uint16 generation;\n  }\n\n  Cat[] cats;\n\n  mapping (uint256 => address) ownerID;\n  mapping (address => uint256) ownership;\n\n  uint256 public gen0Counter;\n\n  function createGen0Cat(uint256 _genes) public onlyOwner returns(uint256){\n    require(gen0Counter < gen0CreationLimit);\n\n    gen0Counter++;\n\n    return  _createKitty(0, 0, 0, _genes, msg.sender);\n  }\n\n  function _createKitty(uint256 _momID, uint256 _dadID, uint256 _generation, uint256 _genes, address owner) private returns (uint256){\n    Cat memory cat = Cat(\n        _genes,\n        uint64(now),\n        uint32(_momID),\n        uint32(_dadID),\n        uint16(_generation));\n\n    uint256 newTokenID = cats.length;\n    cats.push(cat);\n\n    emit Birth(owner, newTokenID, _momID, _dadID, _genes);\n\n    _transfer(address(0), owner, newTokenID);\n\n    return newTokenID;\n  }\n\n  function getKitty(uint256 _tokenID) external view returns(address owner, uint256 genes, uint256 birthTime, uint256 momID, uint256 dadID, uint256 generation){\n    require(_tokenID < cats.length, \"That cat doesn't exist...yet\");\n    Cat storage cat = cats[_tokenID];\n\n    return (ownerID[_tokenID], cat.genes, cat.birthTime, cat.momID, cat.dadID, cat.generation);\n  }\n\n  function balanceOf(address owner) external view returns (uint256 balance){\n    return ownership[owner];\n  }\n\n  function totalSupply() external view returns (uint256 total){\n    return cats.length;\n  }\n\n  function name() external view returns (string memory tokenName){\n    return _name;\n  }\n\n  function symbol() external view returns (string memory tokenSymbol){\n    return _symbol;\n  }\n\n  function ownerOf(uint256 _tokenID) external view returns (address owner){\n    require(_tokenID < cats.length, \"That cat doesn't exist...yet\");\n    return ownerID[_tokenID];\n  }\n\n  function transfer(address _to, uint256 _tokenID) external{\n    require(_to != address(0),\"Cannot Send to Zero Address.\");\n    require(_to != address(this), \"You Cannot Send to the Contract Address.\");\n    require(_owns(msg.sender, _tokenID), \"You Must Be The Owner.\");\n\n    _transfer(msg.sender, _to, _tokenID);\n  }\n\n  function _transfer(address _from, address _to, uint256 _tokenID) private{\n    ownership[_to] ++;\n    ownerID[_tokenID] = _to;\n\n    if (_from != address(0)){\n      ownership[_from] --;\n    }\n\n    emit Transfer(_from, _to, _tokenID);\n  }\n\n  function _owns(address _claimant, uint256 _tokenID) internal view returns(bool){\n    return ownerID[_tokenID] == _claimant;\n  }\n\n\n  function getMyCats(address owner) public view returns(uint[] memory){\n      uint[] memory ownedCats = new uint[](ownership[owner]);\n      for (uint i = 0; i < cats.length; i++){\n        require(ownerID[i] == owner, \"Owner of token ID must match owner address\");\n        ownedCats[i] = i;\n      }\n      return ownedCats;\n  }\n\n}\n",
  "sourcePath": "/Users/tylersiravo/Documents/GitHub/Solidity-Practice/academy-kitties-template/contracts/CatContract.sol",
  "compiler": {
    "name": "solc",
    "version": "0.5.12+commit.7709ece9.Emscripten.clang"
  },
  "schemaVersion": "3.2.0",
  "updatedAt": "2020-11-06T18:17:23.072Z",
  "networkType": "ethereum",
  "devdoc": {
    "methods": {}
  },
  "userdoc": {
    "methods": {}
  }
}