{
  "contractName": "CatContract",
  "abi": [
    {
      "anonymous": false,
      "inputs": [
        {
          "indexed": true,
          "internalType": "address",
          "name": "owner",
          "type": "address"
        },
        {
          "indexed": true,
          "internalType": "address",
          "name": "approved",
          "type": "address"
        },
        {
          "indexed": true,
          "internalType": "uint256",
          "name": "tokenId",
          "type": "uint256"
        }
      ],
      "name": "Approval",
      "type": "event"
    },
    {
      "anonymous": false,
      "inputs": [
        {
          "indexed": true,
          "internalType": "address",
          "name": "owner",
          "type": "address"
        },
        {
          "indexed": true,
          "internalType": "address",
          "name": "operator",
          "type": "address"
        },
        {
          "indexed": false,
          "internalType": "bool",
          "name": "approved",
          "type": "bool"
        }
      ],
      "name": "ApprovalForAll",
      "type": "event"
    },
    {
      "anonymous": false,
      "inputs": [
        {
          "indexed": false,
          "internalType": "address",
          "name": "owner",
          "type": "address"
        },
        {
          "indexed": false,
          "internalType": "uint256",
          "name": "tokenID",
          "type": "uint256"
        },
        {
          "indexed": false,
          "internalType": "uint256",
          "name": "momID",
          "type": "uint256"
        },
        {
          "indexed": false,
          "internalType": "uint256",
          "name": "dadID",
          "type": "uint256"
        },
        {
          "indexed": false,
          "internalType": "uint256",
          "name": "genes",
          "type": "uint256"
        }
      ],
      "name": "Birth",
      "type": "event"
    },
    {
      "anonymous": false,
      "inputs": [
        {
          "indexed": true,
          "internalType": "address",
          "name": "from",
          "type": "address"
        },
        {
          "indexed": true,
          "internalType": "address",
          "name": "to",
          "type": "address"
        },
        {
          "indexed": true,
          "internalType": "uint256",
          "name": "tokenId",
          "type": "uint256"
        }
      ],
      "name": "Transfer",
      "type": "event"
    },
    {
      "constant": true,
      "inputs": [],
      "name": "gen0Counter",
      "outputs": [
        {
          "internalType": "uint256",
          "name": "",
          "type": "uint256"
        }
      ],
      "payable": false,
      "stateMutability": "view",
      "type": "function"
    },
    {
      "constant": true,
      "inputs": [],
      "name": "gen0CreationLimit",
      "outputs": [
        {
          "internalType": "uint256",
          "name": "",
          "type": "uint256"
        }
      ],
      "payable": false,
      "stateMutability": "view",
      "type": "function"
    },
    {
      "constant": true,
      "inputs": [
        {
          "internalType": "uint256",
          "name": "",
          "type": "uint256"
        }
      ],
      "name": "kittyIndexToApproved",
      "outputs": [
        {
          "internalType": "address",
          "name": "",
          "type": "address"
        }
      ],
      "payable": false,
      "stateMutability": "view",
      "type": "function"
    },
    {
      "constant": false,
      "inputs": [
        {
          "internalType": "uint256",
          "name": "_genes",
          "type": "uint256"
        }
      ],
      "name": "createGen0Cat",
      "outputs": [
        {
          "internalType": "uint256",
          "name": "",
          "type": "uint256"
        }
      ],
      "payable": false,
      "stateMutability": "nonpayable",
      "type": "function"
    },
    {
      "constant": true,
      "inputs": [
        {
          "internalType": "uint256",
          "name": "_tokenID",
          "type": "uint256"
        }
      ],
      "name": "getKitty",
      "outputs": [
        {
          "internalType": "address",
          "name": "owner",
          "type": "address"
        },
        {
          "internalType": "uint256",
          "name": "genes",
          "type": "uint256"
        },
        {
          "internalType": "uint256",
          "name": "birthTime",
          "type": "uint256"
        },
        {
          "internalType": "uint256",
          "name": "momID",
          "type": "uint256"
        },
        {
          "internalType": "uint256",
          "name": "dadID",
          "type": "uint256"
        },
        {
          "internalType": "uint256",
          "name": "generation",
          "type": "uint256"
        }
      ],
      "payable": false,
      "stateMutability": "view",
      "type": "function"
    },
    {
      "constant": true,
      "inputs": [
        {
          "internalType": "address",
          "name": "owner",
          "type": "address"
        }
      ],
      "name": "balanceOf",
      "outputs": [
        {
          "internalType": "uint256",
          "name": "balance",
          "type": "uint256"
        }
      ],
      "payable": false,
      "stateMutability": "view",
      "type": "function"
    },
    {
      "constant": true,
      "inputs": [],
      "name": "totalSupply",
      "outputs": [
        {
          "internalType": "uint256",
          "name": "total",
          "type": "uint256"
        }
      ],
      "payable": false,
      "stateMutability": "view",
      "type": "function"
    },
    {
      "constant": true,
      "inputs": [],
      "name": "name",
      "outputs": [
        {
          "internalType": "string",
          "name": "tokenName",
          "type": "string"
        }
      ],
      "payable": false,
      "stateMutability": "view",
      "type": "function"
    },
    {
      "constant": true,
      "inputs": [],
      "name": "symbol",
      "outputs": [
        {
          "internalType": "string",
          "name": "tokenSymbol",
          "type": "string"
        }
      ],
      "payable": false,
      "stateMutability": "view",
      "type": "function"
    },
    {
      "constant": true,
      "inputs": [
        {
          "internalType": "uint256",
          "name": "_tokenID",
          "type": "uint256"
        }
      ],
      "name": "ownerOf",
      "outputs": [
        {
          "internalType": "address",
          "name": "owner",
          "type": "address"
        }
      ],
      "payable": false,
      "stateMutability": "view",
      "type": "function"
    },
    {
      "constant": false,
      "inputs": [
        {
          "internalType": "address",
          "name": "_to",
          "type": "address"
        },
        {
          "internalType": "uint256",
          "name": "_tokenID",
          "type": "uint256"
        }
      ],
      "name": "transfer",
      "outputs": [],
      "payable": false,
      "stateMutability": "nonpayable",
      "type": "function"
    },
    {
      "constant": true,
      "inputs": [],
      "name": "getMyCats",
      "outputs": [
        {
          "internalType": "uint256[]",
          "name": "",
          "type": "uint256[]"
        }
      ],
      "payable": false,
      "stateMutability": "view",
      "type": "function"
    },
    {
      "constant": false,
      "inputs": [
        {
          "internalType": "address",
          "name": "_approved",
          "type": "address"
        },
        {
          "internalType": "uint256",
          "name": "_tokenID",
          "type": "uint256"
        }
      ],
      "name": "approve",
      "outputs": [],
      "payable": false,
      "stateMutability": "nonpayable",
      "type": "function"
    },
    {
      "constant": false,
      "inputs": [
        {
          "internalType": "address",
          "name": "_operator",
          "type": "address"
        },
        {
          "internalType": "bool",
          "name": "_approved",
          "type": "bool"
        }
      ],
      "name": "setApprovalForAll",
      "outputs": [],
      "payable": false,
      "stateMutability": "nonpayable",
      "type": "function"
    },
    {
      "constant": true,
      "inputs": [
        {
          "internalType": "uint256",
          "name": "_tokenID",
          "type": "uint256"
        }
      ],
      "name": "getApproved",
      "outputs": [
        {
          "internalType": "address",
          "name": "",
          "type": "address"
        }
      ],
      "payable": false,
      "stateMutability": "view",
      "type": "function"
    },
    {
      "constant": true,
      "inputs": [
        {
          "internalType": "address",
          "name": "_owner",
          "type": "address"
        },
        {
          "internalType": "address",
          "name": "_operator",
          "type": "address"
        }
      ],
      "name": "isApprovedForAll",
      "outputs": [
        {
          "internalType": "bool",
          "name": "",
          "type": "bool"
        }
      ],
      "payable": false,
      "stateMutability": "view",
      "type": "function"
    },
    {
      "constant": false,
      "inputs": [
        {
          "internalType": "address",
          "name": "_from",
          "type": "address"
        },
        {
          "internalType": "address",
          "name": "_to",
          "type": "address"
        },
        {
          "internalType": "uint256",
          "name": "_tokenID",
          "type": "uint256"
        }
      ],
      "name": "transferFrom",
      "outputs": [],
      "payable": false,
      "stateMutability": "nonpayable",
      "type": "function"
    },
    {
      "constant": false,
      "inputs": [
        {
          "internalType": "address",
          "name": "_from",
          "type": "address"
        },
        {
          "internalType": "address",
          "name": "_to",
          "type": "address"
        },
        {
          "internalType": "uint256",
          "name": "_tokenID",
          "type": "uint256"
        }
      ],
      "name": "safeTransferFrom",
      "outputs": [],
      "payable": false,
      "stateMutability": "nonpayable",
      "type": "function"
    },
    {
      "constant": false,
      "inputs": [
        {
          "internalType": "address",
          "name": "_from",
          "type": "address"
        },
        {
          "internalType": "address",
          "name": "_to",
          "type": "address"
        },
        {
          "internalType": "uint256",
          "name": "_tokenID",
          "type": "uint256"
        },
        {
          "internalType": "bytes",
          "name": "_data",
          "type": "bytes"
        }
      ],
      "name": "safeTransferFrom",
      "outputs": [],
      "payable": false,
      "stateMutability": "nonpayable",
      "type": "function"
    },
    {
      "constant": true,
      "inputs": [
        {
          "internalType": "bytes4",
          "name": "_interfaceID",
          "type": "bytes4"
        }
      ],
      "name": "supportsInterface",
      "outputs": [
        {
          "internalType": "bool",
          "name": "",
          "type": "bool"
        }
      ],
      "payable": false,
      "stateMutability": "pure",
      "type": "function"
    },
    {
      "constant": false,
      "inputs": [
        {
          "internalType": "uint256",
          "name": "_dadID",
          "type": "uint256"
        },
        {
          "internalType": "uint256",
          "name": "_momID",
          "type": "uint256"
        }
      ],
      "name": "breed",
      "outputs": [
        {
          "internalType": "uint256",
          "name": "",
          "type": "uint256"
        }
      ],
      "payable": false,
      "stateMutability": "nonpayable",
      "type": "function"
    }
  ],
  "bytecode": "0x6080604052336000806101000a81548173ffffffffffffffffffffffffffffffffffffffff021916908373ffffffffffffffffffffffffffffffffffffffff16021790555061248d806100536000396000f3fe608060405234801561001057600080fd5b50600436106101375760003560e01c806370a08231116100b8578063b5b287381161007c578063b5b287381461068f578063b88d4fde146106ee578063d9ecad7b146107f3578063e985e9c51461083f578063e98b7f4d146108bb578063ef5e94aa1461094c57610137565b806370a08231146104d457806377e220a01461052c57806395d89b411461056e578063a22cb465146105f1578063a9059cbb1461064157610137565b806323b872dd116100ff57806323b872dd146102fe578063404d0e3e1461036c57806342842e0e1461038a578063481af3d3146103f85780636352211e1461046657610137565b806301ffc9a71461013c57806306fdde03146101a1578063081812fc14610224578063095ea7b31461029257806318160ddd146102e0575b600080fd5b6101876004803603602081101561015257600080fd5b8101908080357bffffffffffffffffffffffffffffffffffffffffffffffffffffffff1916906020019092919050505061096a565b604051808215151515815260200191505060405180910390f35b6101a9610a0a565b6040518080602001828103825283818151815260200191508051906020019080838360005b838110156101e95780820151818401526020810190506101ce565b50505050905090810190601f1680156102165780820380516001836020036101000a031916815260200191505b509250505060405180910390f35b6102506004803603602081101561023a57600080fd5b8101908080359060200190929190505050610a47565b604051808273ffffffffffffffffffffffffffffffffffffffff1673ffffffffffffffffffffffffffffffffffffffff16815260200191505060405180910390f35b6102de600480360360408110156102a857600080fd5b81019080803573ffffffffffffffffffffffffffffffffffffffff16906020019092919080359060200190929190505050610afe565b005b6102e8610c2b565b6040518082815260200191505060405180910390f35b61036a6004803603606081101561031457600080fd5b81019080803573ffffffffffffffffffffffffffffffffffffffff169060200190929190803573ffffffffffffffffffffffffffffffffffffffff16906020019092919080359060200190929190505050610c38565b005b610374610fb7565b6040518082815260200191505060405180910390f35b6103f6600480360360608110156103a057600080fd5b81019080803573ffffffffffffffffffffffffffffffffffffffff169060200190929190803573ffffffffffffffffffffffffffffffffffffffff16906020019092919080359060200190929190505050610fbc565b005b6104246004803603602081101561040e57600080fd5b8101908080359060200190929190505050610fdc565b604051808273ffffffffffffffffffffffffffffffffffffffff1673ffffffffffffffffffffffffffffffffffffffff16815260200191505060405180910390f35b6104926004803603602081101561047c57600080fd5b810190808035906020019092919050505061100f565b604051808273ffffffffffffffffffffffffffffffffffffffff1673ffffffffffffffffffffffffffffffffffffffff16815260200191505060405180910390f35b610516600480360360208110156104ea57600080fd5b81019080803573ffffffffffffffffffffffffffffffffffffffff1690602001909291905050506110c6565b6040518082815260200191505060405180910390f35b6105586004803603602081101561054257600080fd5b810190808035906020019092919050505061110f565b6040518082815260200191505060405180910390f35b6105766111a1565b6040518080602001828103825283818151815260200191508051906020019080838360005b838110156105b657808201518184015260208101905061059b565b50505050905090810190601f1680156105e35780820380516001836020036101000a031916815260200191505b509250505060405180910390f35b61063f6004803603604081101561060757600080fd5b81019080803573ffffffffffffffffffffffffffffffffffffffff1690602001909291908035151590602001909291905050506111de565b005b61068d6004803603604081101561065757600080fd5b81019080803573ffffffffffffffffffffffffffffffffffffffff16906020019092919080359060200190929190505050611381565b005b610697611534565b6040518080602001828103825283818151815260200191508051906020019060200280838360005b838110156106da5780820151818401526020810190506106bf565b505050509050019250505060405180910390f35b6107f16004803603608081101561070457600080fd5b81019080803573ffffffffffffffffffffffffffffffffffffffff169060200190929190803573ffffffffffffffffffffffffffffffffffffffff169060200190929190803590602001909291908035906020019064010000000081111561076b57600080fd5b82018360208201111561077d57600080fd5b8035906020019184600183028401116401000000008311171561079f57600080fd5b91908080601f016020809104026020016040519081016040528093929190818152602001838380828437600081840152601f19601f820116905080830192505050505050509192919290505050611651565b005b6108296004803603604081101561080957600080fd5b8101908080359060200190929190803590602001909291905050506119d2565b6040518082815260200191505060405180910390f35b6108a16004803603604081101561085557600080fd5b81019080803573ffffffffffffffffffffffffffffffffffffffff169060200190929190803573ffffffffffffffffffffffffffffffffffffffff169060200190929190505050611aff565b604051808215151515815260200191505060405180910390f35b6108e7600480360360208110156108d157600080fd5b8101908080359060200190929190505050611b93565b604051808773ffffffffffffffffffffffffffffffffffffffff1673ffffffffffffffffffffffffffffffffffffffff168152602001868152602001858152602001848152602001838152602001828152602001965050505050505060405180910390f35b610954611d00565b6040518082815260200191505060405180910390f35b60006380ac58cd60e01b7bffffffffffffffffffffffffffffffffffffffffffffffffffffffff1916827bffffffffffffffffffffffffffffffffffffffffffffffffffffffff19161480610a0357506301ffc9a760e01b7bffffffffffffffffffffffffffffffffffffffffffffffffffffffff1916827bffffffffffffffffffffffffffffffffffffffffffffffffffffffff1916145b9050919050565b60606040518060400160405280600781526020017f436174436f696e00000000000000000000000000000000000000000000000000815250905090565b60006001805490508210610ac3576040517f08c379a000000000000000000000000000000000000000000000000000000000815260040180806020018281038252601d8152602001807f5468617420746f6b656e2f63617420646f65736e27742065786973742e00000081525060200191505060405180910390fd5b6004600083815260200190815260200160002060009054906101000a900473ffffffffffffffffffffffffffffffffffffffff169050919050565b610b083382611d06565b610b7a576040517f08c379a000000000000000000000000000000000000000000000000000000000815260040180806020018281038252601a8152602001807f4d757374206265206f776e6572206f72206f70657261746f722e00000000000081525060200191505060405180910390fd5b816004600083815260200190815260200160002060006101000a81548173ffffffffffffffffffffffffffffffffffffffff021916908373ffffffffffffffffffffffffffffffffffffffff160217905550808273ffffffffffffffffffffffffffffffffffffffff163373ffffffffffffffffffffffffffffffffffffffff167f8c5be1e5ebec7d5bd14f71427d1e84f3dd0314c0f7b2291e5b200ac8c7c3b92560405160405180910390a45050565b6000600180549050905090565b8273ffffffffffffffffffffffffffffffffffffffff163373ffffffffffffffffffffffffffffffffffffffff161480610cf85750600560008473ffffffffffffffffffffffffffffffffffffffff1673ffffffffffffffffffffffffffffffffffffffff16815260200190815260200160002060003373ffffffffffffffffffffffffffffffffffffffff1673ffffffffffffffffffffffffffffffffffffffff16815260200190815260200160002060009054906101000a900460ff165b80610d6157503373ffffffffffffffffffffffffffffffffffffffff166004600083815260200190815260200160002060009054906101000a900473ffffffffffffffffffffffffffffffffffffffff1673ffffffffffffffffffffffffffffffffffffffff16145b610db6576040517f08c379a000000000000000000000000000000000000000000000000000000000815260040180806020018281038252605a8152602001806123ff605a913960600191505060405180910390fd5b8273ffffffffffffffffffffffffffffffffffffffff166002600083815260200190815260200160002060009054906101000a900473ffffffffffffffffffffffffffffffffffffffff1673ffffffffffffffffffffffffffffffffffffffff1614610e8a576040517f08c379a000000000000000000000000000000000000000000000000000000000815260040180806020018281038252601b8152602001807f5f66726f6d206d7573742062652063757272656e74206f776e6572000000000081525060200191505060405180910390fd5b600073ffffffffffffffffffffffffffffffffffffffff168273ffffffffffffffffffffffffffffffffffffffff161415610f2d576040517f08c379a000000000000000000000000000000000000000000000000000000000815260040180806020018281038252601b8152602001807f43616e6e6f742073656e6420746f207a65726f2061646472657373000000000081525060200191505060405180910390fd5b6001805490508110610fa7576040517f08c379a00000000000000000000000000000000000000000000000000000000081526004018080602001828103825260198152602001807f5468617420746f6b656e20646f65736e27742065786973742e0000000000000081525060200191505060405180910390fd5b610fb2838383611d72565b505050565b600a81565b610fd783838360405180602001604052806000815250611651565b505050565b60046020528060005260406000206000915054906101000a900473ffffffffffffffffffffffffffffffffffffffff1681565b6000600180549050821061108b576040517f08c379a000000000000000000000000000000000000000000000000000000000815260040180806020018281038252601c8152602001807f546861742063617420646f65736e27742065786973742e2e2e7965740000000081525060200191505060405180910390fd5b6002600083815260200190815260200160002060009054906101000a900473ffffffffffffffffffffffffffffffffffffffff169050919050565b6000600360008373ffffffffffffffffffffffffffffffffffffffff1673ffffffffffffffffffffffffffffffffffffffff168152602001908152602001600020549050919050565b60008060009054906101000a900473ffffffffffffffffffffffffffffffffffffffff1673ffffffffffffffffffffffffffffffffffffffff163373ffffffffffffffffffffffffffffffffffffffff161461116a57600080fd5b600a6006541061117957600080fd5b60066000815480929190600101919050555061119a60008060008533611f2e565b9050919050565b60606040518060400160405280600281526020017f4343000000000000000000000000000000000000000000000000000000000000815250905090565b3373ffffffffffffffffffffffffffffffffffffffff168273ffffffffffffffffffffffffffffffffffffffff161415611280576040517f08c379a000000000000000000000000000000000000000000000000000000000815260040180806020018281038252601f8152602001807f546865206f776e65722063616e277420626520746865206f70657261746f720081525060200191505060405180910390fd5b80600560003373ffffffffffffffffffffffffffffffffffffffff1673ffffffffffffffffffffffffffffffffffffffff16815260200190815260200160002060008473ffffffffffffffffffffffffffffffffffffffff1673ffffffffffffffffffffffffffffffffffffffff16815260200190815260200160002060006101000a81548160ff0219169083151502179055508173ffffffffffffffffffffffffffffffffffffffff163373ffffffffffffffffffffffffffffffffffffffff167f17307eab39ab6107e8899845ad3d59bd9653f200f220920489ca2b5937696c3183604051808215151515815260200191505060405180910390a35050565b600073ffffffffffffffffffffffffffffffffffffffff168273ffffffffffffffffffffffffffffffffffffffff161415611424576040517f08c379a000000000000000000000000000000000000000000000000000000000815260040180806020018281038252601c8152602001807f43616e6e6f742053656e6420746f205a65726f20416464726573732e0000000081525060200191505060405180910390fd5b3073ffffffffffffffffffffffffffffffffffffffff168273ffffffffffffffffffffffffffffffffffffffff1614156114a9576040517f08c379a00000000000000000000000000000000000000000000000000000000081526004018080602001828103825260288152602001806123d76028913960400191505060405180910390fd5b6114b33382611d06565b611525576040517f08c379a00000000000000000000000000000000000000000000000000000000081526004018080602001828103825260168152602001807f596f75204d75737420426520546865204f776e65722e0000000000000000000081525060200191505060405180910390fd5b611530338383611d72565b5050565b606080600360003373ffffffffffffffffffffffffffffffffffffffff1673ffffffffffffffffffffffffffffffffffffffff168152602001908152602001600020546040519080825280602002602001820160405280156115a55781602001602082028038833980820191505090505b50905060008090505b600180549050811015611649573373ffffffffffffffffffffffffffffffffffffffff166002600083815260200190815260200160002060009054906101000a900473ffffffffffffffffffffffffffffffffffffffff1673ffffffffffffffffffffffffffffffffffffffff16141561163c578082828151811061162f57fe5b6020026020010181815250505b80806001019150506115ae565b508091505090565b8373ffffffffffffffffffffffffffffffffffffffff163373ffffffffffffffffffffffffffffffffffffffff1614806117115750600560008573ffffffffffffffffffffffffffffffffffffffff1673ffffffffffffffffffffffffffffffffffffffff16815260200190815260200160002060003373ffffffffffffffffffffffffffffffffffffffff1673ffffffffffffffffffffffffffffffffffffffff16815260200190815260200160002060009054906101000a900460ff165b8061177a57503373ffffffffffffffffffffffffffffffffffffffff166004600084815260200190815260200160002060009054906101000a900473ffffffffffffffffffffffffffffffffffffffff1673ffffffffffffffffffffffffffffffffffffffff16145b6117cf576040517f08c379a000000000000000000000000000000000000000000000000000000000815260040180806020018281038252605a8152602001806123ff605a913960600191505060405180910390fd5b8373ffffffffffffffffffffffffffffffffffffffff166002600084815260200190815260200160002060009054906101000a900473ffffffffffffffffffffffffffffffffffffffff1673ffffffffffffffffffffffffffffffffffffffff16146118a3576040517f08c379a000000000000000000000000000000000000000000000000000000000815260040180806020018281038252601b8152602001807f5f66726f6d206d7573742062652063757272656e74206f776e6572000000000081525060200191505060405180910390fd5b600073ffffffffffffffffffffffffffffffffffffffff168373ffffffffffffffffffffffffffffffffffffffff161415611946576040517f08c379a000000000000000000000000000000000000000000000000000000000815260040180806020018281038252601b8152602001807f43616e6e6f742073656e6420746f207a65726f2061646472657373000000000081525060200191505060405180910390fd5b60018054905082106119c0576040517f08c379a00000000000000000000000000000000000000000000000000000000081526004018080602001828103825260198152602001807f5468617420746f6b656e20646f65736e27742065786973742e0000000000000081525060200191505060405180910390fd5b6119cc848484846120fd565b50505050565b60006119de3384611d06565b80156119f057506119ef3383611d06565b5b611a62576040517f08c379a00000000000000000000000000000000000000000000000000000000081526004018080602001828103825260208152602001807f596f75206d757374206f776e20626f7468206361747320746f2062726565642e81525060200191505060405180910390fd5b600080611a6e85611b93565b9550505050925050600080611a8286611b93565b95505050509250506000611a968584612123565b9050600080905082851015611abd5760018301905060028181611ab557fe5b049050611ae5565b82851115611add5760018501905060028181611ad557fe5b049050611ae4565b6001850190505b5b611af2888a838533611f2e565b5050505050505092915050565b6000600560008473ffffffffffffffffffffffffffffffffffffffff1673ffffffffffffffffffffffffffffffffffffffff16815260200190815260200160002060008373ffffffffffffffffffffffffffffffffffffffff1673ffffffffffffffffffffffffffffffffffffffff16815260200190815260200160002060009054906101000a900460ff16905092915050565b6000806000806000806001805490508710611c16576040517f08c379a000000000000000000000000000000000000000000000000000000000815260040180806020018281038252601c8152602001807f546861742063617420646f65736e27742065786973742e2e2e7965740000000081525060200191505060405180910390fd5b600060018881548110611c2557fe5b906000526020600020906002020190506002600089815260200190815260200160002060009054906101000a900473ffffffffffffffffffffffffffffffffffffffff1681600001548260010160009054906101000a900467ffffffffffffffff168360010160089054906101000a900463ffffffff1684600101600c9054906101000a900463ffffffff168560010160109054906101000a900461ffff168367ffffffffffffffff1693508263ffffffff1692508163ffffffff1691508061ffff1690509650965096509650965096505091939550919395565b60065481565b60008273ffffffffffffffffffffffffffffffffffffffff166002600084815260200190815260200160002060009054906101000a900473ffffffffffffffffffffffffffffffffffffffff1673ffffffffffffffffffffffffffffffffffffffff1614905092915050565b600360008373ffffffffffffffffffffffffffffffffffffffff1673ffffffffffffffffffffffffffffffffffffffff16815260200190815260200160002060008154809291906001019190505550816002600083815260200190815260200160002060006101000a81548173ffffffffffffffffffffffffffffffffffffffff021916908373ffffffffffffffffffffffffffffffffffffffff160217905550600073ffffffffffffffffffffffffffffffffffffffff168373ffffffffffffffffffffffffffffffffffffffff1614611ece57600360008473ffffffffffffffffffffffffffffffffffffffff1673ffffffffffffffffffffffffffffffffffffffff16815260200190815260200160002060008154809291906001900391905055506004600082815260200190815260200160002060006101000a81549073ffffffffffffffffffffffffffffffffffffffff02191690555b808273ffffffffffffffffffffffffffffffffffffffff168473ffffffffffffffffffffffffffffffffffffffff167fddf252ad1be2c89b69c2b068fc378daa952ba7f163c4a11628f55a4df523b3ef60405160405180910390a4505050565b6000611f3861235e565b6040518060a001604052808581526020014267ffffffffffffffff1681526020018863ffffffff1681526020018763ffffffff1681526020018661ffff16815250905060006001805490509050600182908060018154018082558091505090600182039060005260206000209060020201600090919290919091506000820151816000015560208201518160010160006101000a81548167ffffffffffffffff021916908367ffffffffffffffff16021790555060408201518160010160086101000a81548163ffffffff021916908363ffffffff160217905550606082015181600101600c6101000a81548163ffffffff021916908363ffffffff16021790555060808201518160010160106101000a81548161ffff021916908361ffff1602179055505050507f0a5311bd2a6608f08a180df2ee7c5946819a649b204b554bb8e39825b2c50ad584828a8a89604051808673ffffffffffffffffffffffffffffffffffffffff1673ffffffffffffffffffffffffffffffffffffffff1681526020018581526020018481526020018381526020018281526020019550505050505060405180910390a16120ef60008583611d72565b809250505095945050505050565b612108848484611d72565b61211484848484612161565b61211d57600080fd5b50505050565b6000806305f5e100848161213357fe5b04905060006305f5e100848161214557fe5b0690506000816305f5e100840201905080935050505092915050565b600061216c84612345565b612179576001905061233d565b60008473ffffffffffffffffffffffffffffffffffffffff1663150b7a02338887876040518563ffffffff1660e01b8152600401808573ffffffffffffffffffffffffffffffffffffffff1673ffffffffffffffffffffffffffffffffffffffff1681526020018473ffffffffffffffffffffffffffffffffffffffff1673ffffffffffffffffffffffffffffffffffffffff16815260200183815260200180602001828103825283818151815260200191508051906020019080838360005b83811015612254578082015181840152602081019050612239565b50505050905090810190601f1680156122815780820380516001836020036101000a031916815260200191505b5095505050505050602060405180830381600087803b1580156122a357600080fd5b505af11580156122b7573d6000803e3d6000fd5b505050506040513d60208110156122cd57600080fd5b8101908080519060200190929190505050905060405180806123a8602f9139602f01905060405180910390207bffffffffffffffffffffffffffffffffffffffffffffffffffffffff1916817bffffffffffffffffffffffffffffffffffffffffffffffffffffffff1916149150505b949350505050565b600080823b905060008163ffffffff1611915050919050565b6040518060a0016040528060008152602001600067ffffffffffffffff168152602001600063ffffffff168152602001600063ffffffff168152602001600061ffff168152509056fe6f6e455243373231526563656976656428616464726573732c616464726573732c75696e743235362c627974657329596f752043616e6e6f742053656e6420746f2074686520436f6e747261637420416464726573732e6d73672e73656e646572206d7573742062652063757272656e74206f776e65722c20616e20617574686f72697a6564206f70657261746f722c206f722074686520617070726f7665642061646472657373206f6620746f6b656ea265627a7a723158203c3ddcffd959f10ccaf96c2a2f7711e3360d9f31b6396f755186fdcd4feb0bb864736f6c634300050c0032",
  "source": "pragma solidity ^0.5.12;\n\nimport \"./Ownable.sol\";\nimport \"./IERC721.sol\";\nimport  \"./IERC721Receiver.sol\";\n\ncontract CatContract is  IERC721, Ownable {\n\n  uint256 public constant gen0CreationLimit = 10;\n  string private constant _name = \"CatCoin\";\n  string private constant _symbol = \"CC\";\n\n  bytes4 internal constant MAGIC_ERC721_RECEIVED = bytes4(keccak256(\"onERC721Received(address,address,uint256,bytes)\"));\n\n  bytes4 private constant _INTERFACE_ID_721 = 0x80ac58cd;\n\n  bytes4 private constant _INTERFACE_ID_165 = 0x01ffc9a7;\n\n  event Birth(address owner, uint256 tokenID, uint256 momID, uint256 dadID, uint256 genes);\n\n  struct Cat{\n    uint256 genes;\n    uint64 birthTime;\n    uint32 momID;\n    uint32 dadID;\n    uint16 generation;\n  }\n\n  Cat[] cats;\n\n  mapping (uint256 => address) private ownerID;\n  mapping (address => uint256) private ownership;\n\n  mapping (uint256 => address) public kittyIndexToApproved;\n  mapping (address => mapping (address => bool)) private _operatorApprovals;\n\n  uint256 public gen0Counter;\n\n  function createGen0Cat(uint256 _genes) public onlyOwner returns(uint256){\n    require(gen0Counter < gen0CreationLimit);\n\n    gen0Counter++;\n\n    return  _createKitty(0, 0, 0, _genes, msg.sender);\n  }\n\n  function _createKitty(uint256 _momID, uint256 _dadID, uint256 _generation, uint256 _genes, address owner) private returns (uint256){\n    Cat memory cat = Cat(\n        _genes,\n        uint64(now),\n        uint32(_momID),\n        uint32(_dadID),\n        uint16(_generation));\n\n    uint256 newTokenID = cats.length;\n    cats.push(cat);\n\n    emit Birth(owner, newTokenID, _momID, _dadID, _genes);\n\n    _transfer(address(0), owner, newTokenID);\n\n    return newTokenID;\n  }\n\n  function getKitty(uint256 _tokenID) public view returns(address owner, uint256 genes, uint256 birthTime, uint256 momID, uint256 dadID, uint256 generation){\n    require(_tokenID < cats.length, \"That cat doesn't exist...yet\");\n    Cat storage cat = cats[_tokenID];\n\n    return (ownerID[_tokenID], cat.genes, cat.birthTime, cat.momID, cat.dadID, cat.generation);\n  }\n\n  function balanceOf(address owner) external view returns (uint256 balance){\n    return ownership[owner];\n  }\n\n  function totalSupply() external view returns (uint256 total){\n    return cats.length;\n  }\n\n  function name() external view returns (string memory tokenName){\n    return _name;\n  }\n\n  function symbol() external view returns (string memory tokenSymbol){\n    return _symbol;\n  }\n\n  function ownerOf(uint256 _tokenID) external view returns (address owner){\n    require(_tokenID < cats.length, \"That cat doesn't exist...yet\");\n    return ownerID[_tokenID];\n  }\n\n  function transfer(address _to, uint256 _tokenID) external{\n    require(_to != address(0),\"Cannot Send to Zero Address.\");\n    require(_to != address(this), \"You Cannot Send to the Contract Address.\");\n    require(_owns(msg.sender, _tokenID), \"You Must Be The Owner.\");\n\n    _transfer(msg.sender, _to, _tokenID);\n  }\n\n  function _transfer(address _from, address _to, uint256 _tokenID) private{\n    ownership[_to] ++;\n    ownerID[_tokenID] = _to;\n\n    if (_from != address(0)){\n      ownership[_from] --;\n      delete kittyIndexToApproved[_tokenID];\n    }\n\n    emit Transfer(_from, _to, _tokenID);\n  }\n\n  function _owns(address _claimant, uint256 _tokenID) internal view returns(bool){\n    return ownerID[_tokenID] == _claimant;\n  }\n\n  function getMyCats() external view returns(uint256[] memory){\n    uint256[] memory ownedCats = new uint256[](ownership[msg.sender]);\n    for (uint256 i = 0; i < cats.length; i++){\n        if (ownerID[i] == msg.sender){\n          ownedCats[i] = i;\n        }\n      }\n    return ownedCats;\n  }\n\n  function approve(address _approved, uint256 _tokenID) external{\n    require(_owns(msg.sender, _tokenID), \"Must be owner or operator.\");\n\n    kittyIndexToApproved[_tokenID] = _approved;\n\n    emit Approval(msg.sender, _approved, _tokenID);\n  }\n\n  function setApprovalForAll(address _operator, bool _approved) external{\n    require(_operator != msg.sender, \"The owner can't be the operator\");\n\n    _operatorApprovals[msg.sender][_operator] = _approved;\n\n    emit ApprovalForAll(msg.sender, _operator, _approved);\n  }\n\n  function getApproved(uint256 _tokenID) external view returns (address){\n    require(_tokenID < cats.length, \"That token/cat doesn't exist.\");\n    return kittyIndexToApproved[_tokenID];\n  }\n\n  function isApprovedForAll(address _owner, address _operator) external view returns (bool){\n    return _operatorApprovals[_owner][_operator];\n  }\n\n  function transferFrom(address _from, address _to, uint256 _tokenID) external{\n    require(msg.sender == _from || _operatorApprovals[_from][msg.sender] || kittyIndexToApproved[_tokenID] == msg.sender, \"msg.sender must be current owner, an authorized operator, or the approved address of token\");\n    require(ownerID[_tokenID] == _from, \"_from must be current owner\");\n    require(_to != address(0), \"Cannot send to zero address\");\n    require(_tokenID < cats.length, \"That token doesn't exist.\");\n\n    _transfer(_from, _to, _tokenID);\n  }\n\n  function safeTransferFrom(address _from, address _to, uint256 _tokenID, bytes memory _data) public{\n    require(msg.sender == _from || _operatorApprovals[_from][msg.sender] || kittyIndexToApproved[_tokenID] == msg.sender, \"msg.sender must be current owner, an authorized operator, or the approved address of token\");\n    require(ownerID[_tokenID] == _from, \"_from must be current owner\");\n    require(_to != address(0), \"Cannot send to zero address\");\n    require(_tokenID < cats.length, \"That token doesn't exist.\");\n\n    _safeTransfer(_from, _to, _tokenID, _data);\n  }\n\n  function safeTransferFrom(address _from, address _to, uint256 _tokenID) external{\n    safeTransferFrom(_from, _to, _tokenID, \"\");\n  }\n\n  function _safeTransfer(address _from, address _to, uint256 _tokenID, bytes memory _data) internal{\n    _transfer(_from, _to, _tokenID);\n    require(_checkERC721Support(_from, _to, _tokenID, _data));\n  }\n\n  function _checkERC721Support(address _from, address _to, uint256 _tokenID, bytes memory _data) internal returns(bool){\n    if(!_isContract(_to)){\n      return true;\n    }\n\n    bytes4 returnData = IERC721Receiver(_to).onERC721Received(msg.sender, _from, _tokenID, _data);\n    return returnData == MAGIC_ERC721_RECEIVED;\n  }\n\n  function _isContract(address _to) view internal returns (bool){\n    uint32 size;\n    assembly{\n        size := extcodesize(_to)\n    }\n    return size > 0;\n  }\n\n  function supportsInterface(bytes4 _interfaceID) external pure returns (bool){\n    return (_interfaceID == _INTERFACE_ID_721 || _interfaceID == _INTERFACE_ID_165);\n  }\n\n  function breed(uint256 _dadID, uint256 _momID) public returns (uint256){\n    require(_owns(msg.sender, _dadID) && _owns(msg.sender, _momID), \"You must own both cats to breed.\");\n\n    (,uint256 _dadDna,,,,uint256 dadGen) = getKitty(_dadID);\n    (,uint256 _momDna,,,,uint256 momGen) = getKitty(_momID);\n\n    uint256 newDna = _mixDna(_dadDna, _momDna);\n\n    uint256 babyGen = 0;\n\n    if (dadGen < momGen){\n       babyGen = momGen + 1;\n       babyGen /= 2;\n    } else if (dadGen > momGen){\n        babyGen = dadGen + 1;\n        babyGen /= 2;\n    } else {\n        babyGen = dadGen + 1;\n    }\n\n    _createKitty(_momID, _dadID, babyGen, newDna, msg.sender);\n  }\n\n  function _mixDna(uint256 _dadDna, uint256 _momDna) internal pure returns (uint256){\n    uint256 dadHalf = _dadDna / 100000000;\n    uint256 momHalf = _momDna % 100000000;\n\n    uint256 newDna = (dadHalf * 100000000) + momHalf;\n\n    return newDna;\n  }\n}\n",
  "sourcePath": "/Users/tylersiravo/Documents/GitHub/Solidity-Practice/academy-kitties-template/contracts/CatContract.sol",
  "compiler": {
    "name": "solc",
    "version": "0.5.12+commit.7709ece9.Emscripten.clang"
  },
  "schemaVersion": "3.2.0",
  "updatedAt": "2020-12-15T17:12:42.691Z",
  "networkType": "ethereum",
  "devdoc": {
    "methods": {}
  },
  "userdoc": {
    "methods": {}
  }
}