{
  "contractName": "KittyMarketPlace",
  "abi": [
    {
      "inputs": [
        {
          "internalType": "address",
          "name": "_CatContractAddress",
          "type": "address"
        }
      ],
      "payable": false,
      "stateMutability": "nonpayable",
      "type": "constructor"
    },
    {
      "anonymous": false,
      "inputs": [
        {
          "indexed": false,
          "internalType": "string",
          "name": "TxType",
          "type": "string"
        },
        {
          "indexed": false,
          "internalType": "address",
          "name": "owner",
          "type": "address"
        },
        {
          "indexed": false,
          "internalType": "uint256",
          "name": "tokenID",
          "type": "uint256"
        }
      ],
      "name": "MarketTransaction",
      "type": "event"
    },
    {
      "constant": false,
      "inputs": [
        {
          "internalType": "address",
          "name": "_CatContractAddress",
          "type": "address"
        }
      ],
      "name": "setKittyContract",
      "outputs": [],
      "payable": false,
      "stateMutability": "nonpayable",
      "type": "function"
    },
    {
      "constant": true,
      "inputs": [
        {
          "internalType": "uint256",
          "name": "_tokenID",
          "type": "uint256"
        }
      ],
      "name": "getOffer",
      "outputs": [
        {
          "internalType": "address",
          "name": "seller",
          "type": "address"
        },
        {
          "internalType": "uint256",
          "name": "price",
          "type": "uint256"
        },
        {
          "internalType": "uint256",
          "name": "index",
          "type": "uint256"
        },
        {
          "internalType": "uint256",
          "name": "tokenID",
          "type": "uint256"
        },
        {
          "internalType": "bool",
          "name": "active",
          "type": "bool"
        }
      ],
      "payable": false,
      "stateMutability": "view",
      "type": "function"
    },
    {
      "constant": true,
      "inputs": [],
      "name": "getAllTokenOnSale",
      "outputs": [
        {
          "internalType": "uint256[]",
          "name": "listOfOffers",
          "type": "uint256[]"
        }
      ],
      "payable": false,
      "stateMutability": "view",
      "type": "function"
    },
    {
      "constant": false,
      "inputs": [
        {
          "internalType": "uint256",
          "name": "_price",
          "type": "uint256"
        },
        {
          "internalType": "uint256",
          "name": "_tokenID",
          "type": "uint256"
        }
      ],
      "name": "setOffer",
      "outputs": [],
      "payable": false,
      "stateMutability": "nonpayable",
      "type": "function"
    },
    {
      "constant": false,
      "inputs": [
        {
          "internalType": "uint256",
          "name": "_tokenID",
          "type": "uint256"
        }
      ],
      "name": "removeOffer",
      "outputs": [],
      "payable": false,
      "stateMutability": "nonpayable",
      "type": "function"
    },
    {
      "constant": false,
      "inputs": [
        {
          "internalType": "uint256",
          "name": "_tokenID",
          "type": "uint256"
        }
      ],
      "name": "buyKitty",
      "outputs": [],
      "payable": true,
      "stateMutability": "payable",
      "type": "function"
    }
  ],
  "bytecode": "0x608060405234801561001057600080fd5b506040516114153803806114158339818101604052602081101561003357600080fd5b8101908080519060200190929190505050336000806101000a81548173ffffffffffffffffffffffffffffffffffffffff021916908373ffffffffffffffffffffffffffffffffffffffff1602179055506100938161009960201b60201c565b50610136565b6000809054906101000a900473ffffffffffffffffffffffffffffffffffffffff1673ffffffffffffffffffffffffffffffffffffffff163373ffffffffffffffffffffffffffffffffffffffff16146100f257600080fd5b80600160006101000a81548173ffffffffffffffffffffffffffffffffffffffff021916908373ffffffffffffffffffffffffffffffffffffffff16021790555050565b6112d0806101456000396000f3fe6080604052600436106100555760003560e01c80634579268a1461005a57806349b3709f146100f557806362b7f94e14610161578063941b055b146101b257806395a0f9c7146101f7578063ae5310f614610232575b600080fd5b34801561006657600080fd5b506100936004803603602081101561007d57600080fd5b8101908080359060200190929190505050610260565b604051808673ffffffffffffffffffffffffffffffffffffffff1673ffffffffffffffffffffffffffffffffffffffff168152602001858152602001848152602001838152602001821515151581526020019550505050505060405180910390f35b34801561010157600080fd5b5061010a610379565b6040518080602001828103825283818151815260200191508051906020019060200280838360005b8381101561014d578082015181840152602081019050610132565b505050509050019250505060405180910390f35b34801561016d57600080fd5b506101b06004803603602081101561018457600080fd5b81019080803573ffffffffffffffffffffffffffffffffffffffff169060200190929190505050610493565b005b3480156101be57600080fd5b506101f5600480360360408110156101d557600080fd5b810190808035906020019092919080359060200190929190505050610530565b005b34801561020357600080fd5b506102306004803603602081101561021a57600080fd5b8101908080359060200190929190505050610b4b565b005b61025e6004803603602081101561024857600080fd5b8101908080359060200190929190505050610d62565b005b6000806000806000600115156003600088815260200190815260200160002060040160009054906101000a900460ff16151514610305576040517f08c379a00000000000000000000000000000000000000000000000000000000081526004018080602001828103825260188152602001807f5468697320636174206973206e6f7420666f722073616c65000000000000000081525060200191505060405180910390fd5b60006003600088815260200190815260200160002090508060000160009054906101000a900473ffffffffffffffffffffffffffffffffffffffff168160010154826002015483600301548460040160009054906101000a900460ff16849450955095509550955095505091939590929450565b6060600060028054905014156103c15760006040519080825280602002602001820160405280156103b95781602001602082028038833980820191505090505b509050610490565b60606002805490506040519080825280602002602001820160405280156103f75781602001602082028038833980820191505090505b50905060008090505b60028054905081101561048a57600115156002828154811061041e57fe5b906000526020600020906005020160040160009054906101000a900460ff161515141561047d576002818154811061045257fe5b90600052602060002090600502016003015482828151811061047057fe5b6020026020010181815250505b8080600101915050610400565b50809150505b90565b6000809054906101000a900473ffffffffffffffffffffffffffffffffffffffff1673ffffffffffffffffffffffffffffffffffffffff163373ffffffffffffffffffffffffffffffffffffffff16146104ec57600080fd5b80600160006101000a81548173ffffffffffffffffffffffffffffffffffffffff021916908373ffffffffffffffffffffffffffffffffffffffff16021790555050565b60011515600160009054906101000a900473ffffffffffffffffffffffffffffffffffffffff1673ffffffffffffffffffffffffffffffffffffffff1663e21fd9fc33846040518363ffffffff1660e01b8152600401808373ffffffffffffffffffffffffffffffffffffffff1673ffffffffffffffffffffffffffffffffffffffff1681526020018281526020019250505060206040518083038186803b1580156105db57600080fd5b505afa1580156105ef573d6000803e3d6000fd5b505050506040513d602081101561060557600080fd5b810190808051906020019092919050505015151461068b576040517f08c379a00000000000000000000000000000000000000000000000000000000081526004018080602001828103825260148152602001807f596f75206d757374206f776e207468652063617400000000000000000000000081525060200191505060405180910390fd5b600015156003600083815260200190815260200160002060040160009054906101000a900460ff16151514610728576040517f08c379a000000000000000000000000000000000000000000000000000000000815260040180806020018281038252601a8152602001807f43616e6e6f7420646f75626c652073656c6c207468652063617400000000000081525060200191505060405180910390fd5b600160009054906101000a900473ffffffffffffffffffffffffffffffffffffffff1673ffffffffffffffffffffffffffffffffffffffff1663e985e9c533306040518363ffffffff1660e01b8152600401808373ffffffffffffffffffffffffffffffffffffffff1673ffffffffffffffffffffffffffffffffffffffff1681526020018273ffffffffffffffffffffffffffffffffffffffff1673ffffffffffffffffffffffffffffffffffffffff1681526020019250505060206040518083038186803b1580156107fb57600080fd5b505afa15801561080f573d6000803e3d6000fd5b505050506040513d602081101561082557600080fd5b810190808051906020019092919050505061088b576040517f08c379a000000000000000000000000000000000000000000000000000000000815260040180806020018281038252603a815260200180611262603a913960400191505060405180910390fd5b60008211610901576040517f08c379a00000000000000000000000000000000000000000000000000000000081526004018080602001828103825260178152602001807f4e6f20667265652063617473206865726520627564647900000000000000000081525060200191505060405180910390fd5b6109096111ca565b6040518060a001604052803373ffffffffffffffffffffffffffffffffffffffff1681526020018481526020016002805490508152602001838152602001600115158152509050806003600084815260200190815260200160002060008201518160000160006101000a81548173ffffffffffffffffffffffffffffffffffffffff021916908373ffffffffffffffffffffffffffffffffffffffff16021790555060208201518160010155604082015181600201556060820151816003015560808201518160040160006101000a81548160ff0219169083151502179055509050506002819080600181540180825580915050906001820390600052602060002090600502016000909192909190915060008201518160000160006101000a81548173ffffffffffffffffffffffffffffffffffffffff021916908373ffffffffffffffffffffffffffffffffffffffff16021790555060208201518160010155604082015181600201556060820151816003015560808201518160040160006101000a81548160ff0219169083151502179055505050507fd99e4fad9ad6313b1feb588fa8e605e3a9873172f2024330c35dd2b4041a4386338360405180806020018473ffffffffffffffffffffffffffffffffffffffff1673ffffffffffffffffffffffffffffffffffffffff1681526020018381526020018281038252600d8152602001807f4f66666572204372656174656400000000000000000000000000000000000000815250602001935050505060405180910390a1505050565b3373ffffffffffffffffffffffffffffffffffffffff166003600083815260200190815260200160002060000160009054906101000a900473ffffffffffffffffffffffffffffffffffffffff1673ffffffffffffffffffffffffffffffffffffffff1614610c05576040517f08c379a000000000000000000000000000000000000000000000000000000000815260040180806020018281038252602b815260200180611237602b913960400191505060405180910390fd5b60006002600360008481526020019081526020016000206002015481548110610c2a57fe5b906000526020600020906005020160040160006101000a81548160ff02191690831515021790555060036000828152602001908152602001600020600080820160006101000a81549073ffffffffffffffffffffffffffffffffffffffff02191690556001820160009055600282016000905560038201600090556004820160006101000a81549060ff021916905550507fd99e4fad9ad6313b1feb588fa8e605e3a9873172f2024330c35dd2b4041a4386338260405180806020018473ffffffffffffffffffffffffffffffffffffffff1673ffffffffffffffffffffffffffffffffffffffff1681526020018381526020018281038252600d8152602001807f4f666665722052656d6f76656400000000000000000000000000000000000000815250602001935050505060405180910390a150565b34600360008381526020019081526020016000206001015414610dd0576040517f08c379a00000000000000000000000000000000000000000000000000000000081526004018080602001828103825260258152602001806112126025913960400191505060405180910390fd5b600115156003600083815260200190815260200160002060040160009054906101000a900460ff16151514610e6d576040517f08c379a00000000000000000000000000000000000000000000000000000000081526004018080602001828103825260148152602001807f4f66666572206d7573742062652061637469766500000000000000000000000081525060200191505060405180910390fd5b610e756111ca565b600360008381526020019081526020016000206040518060a00160405290816000820160009054906101000a900473ffffffffffffffffffffffffffffffffffffffff1673ffffffffffffffffffffffffffffffffffffffff1673ffffffffffffffffffffffffffffffffffffffff1681526020016001820154815260200160028201548152602001600382015481526020016004820160009054906101000a900460ff161515151581525050905060006002600360008581526020019081526020016000206002015481548110610f4957fe5b906000526020600020906005020160040160006101000a81548160ff02191690831515021790555060036000838152602001908152602001600020600080820160006101000a81549073ffffffffffffffffffffffffffffffffffffffff02191690556001820160009055600282016000905560038201600090556004820160006101000a81549060ff02191690555050806000015173ffffffffffffffffffffffffffffffffffffffff166108fc82602001519081150290604051600060405180830381858888f19350505050158015611028573d6000803e3d6000fd5b50600160009054906101000a900473ffffffffffffffffffffffffffffffffffffffff1673ffffffffffffffffffffffffffffffffffffffff166323b872dd826000015133856040518463ffffffff1660e01b8152600401808473ffffffffffffffffffffffffffffffffffffffff1673ffffffffffffffffffffffffffffffffffffffff1681526020018373ffffffffffffffffffffffffffffffffffffffff1673ffffffffffffffffffffffffffffffffffffffff1681526020018281526020019350505050600060405180830381600087803b15801561110a57600080fd5b505af115801561111e573d6000803e3d6000fd5b505050507fd99e4fad9ad6313b1feb588fa8e605e3a9873172f2024330c35dd2b4041a4386338360405180806020018473ffffffffffffffffffffffffffffffffffffffff1673ffffffffffffffffffffffffffffffffffffffff1681526020018381526020018281038252600a8152602001807f43617420426f7567687400000000000000000000000000000000000000000000815250602001935050505060405180910390a15050565b6040518060a00160405280600073ffffffffffffffffffffffffffffffffffffffff168152602001600081526020016000815260200160008152602001600015158152509056fe5061796d656e74206d75737420626520657175616c20746f207072696365206f66206361744d757374206265207468652073656c6c65722f6f776e657220746f2072656d6f766520616e206f66666572436f6e7472616374206d75737420626520617070726f766564206f70657261746f7220666f72206f6666657220746f2062652063726561746564a265627a7a723158207fd6a4407d2108d1157b95ea7e6d53c4dd36da20e1f506264f9236079b43765164736f6c634300050c0032",
  "source": "pragma solidity ^0.5.12;\n\nimport \"./CatContract.sol\";\nimport \"./Ownable.sol\";\nimport \"./IKittyMarketPlace.sol\";\n\ncontract KittyMarketPlace is Ownable, IKittyMarketPlace {\n  CatContract private _CatContract;\n\n  struct Offer{\n    address payable seller;\n    uint256 price;\n    uint256 index;\n    uint256 tokenID;\n    bool active;\n  }\n\n  Offer[] offers;\n\n  mapping(uint256 => Offer) tokenIDToOffer;\n\n  function setKittyContract(address _CatContractAddress) public onlyOwner{\n    _CatContract = CatContract(_CatContractAddress);\n  }\n\n  constructor(address _CatContractAddress) public {\n    setKittyContract(_CatContractAddress);\n  }\n\n  function getOffer(uint256 _tokenID) public view returns (address seller, uint256 price, uint256 index, uint256 tokenID, bool active){\n    require(tokenIDToOffer[_tokenID].active == true, \"This cat is not for sale\");\n    Offer storage offer = tokenIDToOffer[_tokenID];\n\n    return (offer.seller, offer.price, offer.index, offer.tokenID, offer.active);\n  }\n\n  function getAllTokenOnSale() public view returns(uint256[] memory listOfOffers){\n    if(offers.length == 0){\n        return new uint256[](0);\n    } else{\n    uint256[] memory forSaleCats = new uint256[](offers.length);\n\n    for(uint256 i = 0; i < offers.length; i++){\n      if(offers[i].active == true){\n        forSaleCats[i] = offers[i].tokenID;\n      }\n    }\n    return forSaleCats;\n    }\n  }\n\n  function setOffer(uint256 _price, uint256 _tokenID) public{\n    require(_CatContract._owns(msg.sender, _tokenID) == true, \"You must own the cat\");\n    require(tokenIDToOffer[_tokenID].active == false, \"Cannot double sell the cat\");\n    require(_CatContract.isApprovedForAll(msg.sender, address(this)), \"Contract must be approved operator for offer to be created\");\n    require(_price > 0, \"No free cats here buddy\");\n\n    Offer memory offer = Offer(msg.sender, _price, offers.length, _tokenID, true);\n\n    tokenIDToOffer[_tokenID] = offer;\n\n    offers.push(offer);\n\n    emit MarketTransaction(\"Offer Created\", msg.sender, _tokenID);\n  }\n\n  function removeOffer(uint256 _tokenID) public{\n    require(tokenIDToOffer[_tokenID].seller == msg.sender, \"Must be the seller/owner to remove an offer\");\n\n    offers[tokenIDToOffer[_tokenID].index].active = false;\n    delete tokenIDToOffer[_tokenID];\n\n    emit MarketTransaction(\"Offer Removed\", msg.sender, _tokenID);\n  }\n\n  function buyKitty(uint256 _tokenID) public payable{\n    require(tokenIDToOffer[_tokenID].price == msg.value, \"Payment must be equal to price of cat\");\n    require(tokenIDToOffer[_tokenID].active == true, \"Offer must be active\");\n\n    Offer memory offer = tokenIDToOffer[_tokenID];\n\n    //delete cat from mapping before payout to prevent reentry attack\n    offers[tokenIDToOffer[_tokenID].index].active = false;\n    delete tokenIDToOffer[_tokenID];\n\n    offer.seller.transfer(offer.price);\n\n    _CatContract.transferFrom(offer.seller, msg.sender, _tokenID);\n\n    emit MarketTransaction(\"Cat Bought\", msg.sender, _tokenID);\n  }\n}\n",
  "sourcePath": "/Users/tylersiravo/Documents/GitHub/Solidity-Practice/academy-kitties-template/contracts/KittyMarketPlace.sol",
  "compiler": {
    "name": "solc",
    "version": "0.5.12+commit.7709ece9.Emscripten.clang"
  },
  "schemaVersion": "3.2.0",
  "updatedAt": "2021-03-01T21:58:57.135Z",
  "networkType": "ethereum",
  "devdoc": {
    "methods": {}
  },
  "userdoc": {
    "methods": {}
  }
}